{
  "transactions": [
    {
      "hash": "0xcd86bbad4fdafbe51309ecf81abc36ee4f0b534fca41571a77c295f2e648e0ae",
      "transactionType": "CALL",
      "contractName": null,
      "contractAddress": "0x61ce11261f405c3da8a2017c40961a37cbcd14ed",
      "function": "mintNft(string)",
      "arguments": [
        "ipfs://bafybeig37ioir76s7mg5oobetncojcm3c3hxasyd4rvid4jqhy4gkaheg4/?filename=0-PUG.json"
      ],
      "transaction": {
        "from": "0x2cfa9dc460b07ea03961874636dfac7bddc9aab8",
        "to": "0x61ce11261f405c3da8a2017c40961a37cbcd14ed",
        "gas": "0x40fd9",
        "value": "0x0",
        "input": "0xda86f4a900000000000000000000000000000000000000000000000000000000000000200000000000000000000000000000000000000000000000000000000000000057697066733a2f2f62616679626569673337696f6972373673376d67356f6f6265746e636f6a636d3363336878617379643472766964346a71687934676b61686567342f3f66696c656e616d653d302d5055472e6a736f6e000000000000000000",
        "nonce": "0x10",
        "chainId": "0xaa36a7"
      },
      "additionalContracts": [],
      "isFixedGasLimit": false
    }
  ],
  "receipts": [
    {
      "status": "0x1",
      "cumulativeGasUsed": "0xf4e869",
      "logs": [
        {
          "address": "0x61ce11261f405c3da8a2017c40961a37cbcd14ed",
          "topics": [
            "0xddf252ad1be2c89b69c2b068fc378daa952ba7f163c4a11628f55a4df523b3ef",
            "0x0000000000000000000000000000000000000000000000000000000000000000",
            "0x0000000000000000000000002cfa9dc460b07ea03961874636dfac7bddc9aab8",
            "0x0000000000000000000000000000000000000000000000000000000000000000"
          ],
          "data": "0x",
          "blockHash": "0x3ec139bf0255f18e4e602e35825152bab0d2e75b7d65680641ee879e49034956",
          "blockNumber": "0x6b22d4",
          "transactionHash": "0xcd86bbad4fdafbe51309ecf81abc36ee4f0b534fca41571a77c295f2e648e0ae",
          "transactionIndex": "0x46",
          "logIndex": "0x54",
          "removed": false
        }
      ],
      "logsBloom": "0x00000000000000000000000000000000000000000000000000000000000000040000000000000000000000000000000000000000000000000000000000000000000000000000000000000008000000000000000000000400000000000000000000000000020000000000000000000800000000000000000000000010000000000000000000000000000000000000000000000000000000000000000000000000000000000000000000000000000000000000000000400000000800000000000000000006000000000000000000000000000000000000000000000000000020000000000000000000000000000000000000000000000000000000000200000000",
      "type": "0x2",
      "transactionHash": "0xcd86bbad4fdafbe51309ecf81abc36ee4f0b534fca41571a77c295f2e648e0ae",
      "transactionIndex": "0x46",
      "blockHash": "0x3ec139bf0255f18e4e602e35825152bab0d2e75b7d65680641ee879e49034956",
      "blockNumber": "0x6b22d4",
      "gasUsed": "0x2c702",
      "effectiveGasPrice": "0xa958a4aa",
      "from": "0x2cfa9dc460b07ea03961874636dfac7bddc9aab8",
      "to": "0x61ce11261f405c3da8a2017c40961a37cbcd14ed",
      "contractAddress": null
    }
  ],
  "libraries": [],
  "pending": [],
  "returns": {},
  "timestamp": 1730886965,
  "chain": 11155111,
  "commit": "4df731b"
}